:020000040800F2
:10000000D0070020890100086F170008AB14000812
:100010006D1700088F020008651C00080000000032
:10002000000000000000000000000000731700083E
:100030009102000800000000711700087517000801
:10004000A3010008A3010008A3010008A301000800
:10005000A3010008A3010008A3010008A3010008F0
:10006000A3010008A301000893020008A3010008EF
:10007000A3010008A3010008A3010008A3010008D0
:10008000A3010008A3010008A3010008A3010008C0
:10009000A3010008A3010008A3010008A3010008B0
:1000A000A3010008A3010008A3010008A3010008A0
:1000B000A3010008A3010008A3010008A301000890
:1000C000A3010008A3010008A3010008A301000880
:1000D000A3010008F51B0008A3010008A301000804
:1000E000A3010008A3010008A301000800F002F822
:1000F00000F03AF80AA090E8000C82448344AAF188
:100100000107DA4501D100F02FF8AFF2090EBAE885
:100110000F0013F0010F18BFFB1A43F0010318473B
:10012000DC220000FC220000103A24BF78C878C10D
:10013000FAD8520724BF30C830C144BF04680C60ED
:10014000704700000023002400250026103A28BF35
:1001500078C1FBD8520728BF30C148BF0B60704739
:100160001FB51FBD10B510BD00F058F81146FFF7C0
:10017000F7FF01F0D9FD00F076F803B4FFF7F2FFC6
:1001800003BC00F07DF8000009488047094800479B
:10019000FEE7FEE7FEE7FEE7FEE7FEE7FEE7FEE737
:1001A000FEE7FEE704480549054A064B7047000094
:1001B000D7170008ED000008D0010020D00700206C
:1001C000D0030020D00300204FF0000200B51346FA
:1001D00094469646203922BFA0E80C50A0E80C5067
:1001E000B1F12001BFF4F7AF090728BFA0E80C5018
:1001F00048BF0CC05DF804EB890028BF40F8042B11
:1002000008BF704748BF20F8022B11F0804F18BF7D
:1002100000F8012B7047704770477047754600F033
:100220002BF8AE4605006946534620F00700854688
:1002300018B020B5FFF7B6FFBDE820404FF000062C
:100240004FF000074FF000084FF0000B21F00701BE
:10025000AC46ACE8C009ACE8C009ACE8C009ACE801
:10026000C0098D46704710B50446AFF300802046A4
:10027000BDE81040FFF781BF0048704770010020C3
:1002800001491820ABBEFEE7260002007047FEE7DA
:100290007047102000F0AEB810B590F82110002281
:1002A000022905D00421816380F82020012010BD9F
:1002B00001680B6823F00E030B6001680B6823F0E4
:1002C00001030B6090F84030C46B012101FA03F385
:1002D000636080F8211080F82020104610BD0000D7
:1002E00010B590F821100024022903D00421816365
:1002F00001243DE001680A6822F00E020A600168EC
:100300000A6822F001020A601A4A0168914201D18A
:10031000012121E0174A1432914201D110211BE042
:10032000144A2832914201D1891515E0114A3C3214
:10033000914201D189140FE00E4A5032914202D10C
:100340004FF4803108E00B4A6432914202D14FF4FD
:10035000801101E04FF08071064A083A5160012196
:1003600080F82110002180F82010416B01B18847EE
:10037000204610BD0800024070B5044600F040F968
:100380000546601C02D004480078044400F038F9A7
:10039000401BA042FAD370BD1400002070B5124C6F
:1003A000002512482178012906D002290AD11021FE
:1003B00000F01CF988B104E0102100F017F90128C1
:1003C00001D0257070BD0A48006845620220207087
:1003D000BDE87040064800F0F9BC054800F01EFD7D
:1003E0000320207070BD00002400002000080140A0
:1003F000BC000020044910B50A68024202D008601F
:10040000FFF7CCFF10BD0000140401402DE9F84FA8
:10041000DFF8B891002409F1040A0AF1040B23461D
:100420000F270BF1040EC9E00125A5402A40AA427E
:100430007DD1674ED1F804C0ACEB0608B44532D08C
:1004400014DCBCF1030F3AD009DCBCF1000F2AD058
:10045000BCF1010F1CD0BCF1020F31D11DE0BCF189
:10046000110F17D0BCF1120F2AD119E0B8F5881F6F
:1004700019D006DCB8F5803F15D0B8F5801F1FD124
:1004800011E0B8F5001F0ED0B8F5041F18D10AE02E
:10049000CB6815E0CB681B1D12E0CB6808330FE07A
:1004A000CB680C330CE08B682BB1012B4FF00803A9
:1004B00003D0456104E0042302E0056100E000236D
:1004C000FF2A01D8064601E000F104064FEA840540
:1004D00001D9A5F12005D6F8008007FA05FC28EA25
:1004E0000C0803FA05F548EA0508C6F800804D68CF
:1004F000ED0062D5374DAE6946F00106AE61AD69DB
:1005000024F0030605F001050095334D06EB050CBC
:10051000DCF80850A607360F07FA06F825EA0805A2
:10052000DFF8B880404503D14FF0000817E044E001
:10053000DFF8AC80404502D14FF001080FE0DFF852
:10054000A480404502D14FF0020808E0DFF898800F
:10055000404502D14FF0030801E04FF0040808FACB
:1005600006F848EA0508CCF808804D68D9F800601C
:10057000ED034D4601D5164300E096432E604D68CD
:10058000DAF80060AD03554601D5164300E0964306
:100590002E604D68DBF80060ED025D4601D5164324
:1005A00000E096432E604D68DEF80060AD027546AF
:1005B00001D5164300E096432E60641C0D682A4660
:1005C000E5407FF431AFBDE8F88F00000004014042
:1005D000000011100010024000000140000801401E
:1005E000000C0140001001400014014080680840E8
:1005F00000D0012070470AB1016170470904FBE790
:10060000014880687047000014000020024881689B
:10061000027811448160704714000020074810B52B
:10062000016841F010010160032000F075F80F200F
:1006300000F006F800F024F8002010BD0020024071
:1006400070B50D4D04464FF47A712878B1FBF0F087
:100650000A490968B1FBF0F000F0ECFA48B9102C37
:1006600007D200222146501E00F036F800206C60B0
:1006700070BD012070BD000014000020200000208B
:100680000C4808B5816941F001018161816901F07F
:1006900001010091C16941F08051C161C06900F060
:1006A000805000900448416821F0E06141F0007101
:1006B000416008BD0010024000000140002809DB35
:1006C00000F01F02012191404009800000F1E0206C
:1006D000C0F8001170470000F0B40E4B1B680C46C8
:1006E000C3F30223C3F10705042D00D90425191D06
:1006F000072901D2002300E0DB1E012606FA05F1DE
:10070000491E214099409E40761E16403143F0BC60
:1007100001F0A9BA0CED00E0064900F007020868F4
:100720004FF6FF03184040EA0220034A10430860D6
:10073000704700000CED00E00000FA052DE9F047DD
:100740000F46050061D0434E306800F00700B84204
:1007500009D2306820F0070038433060306800F07C
:100760000700B84251D128683B4C810712D5400799
:1007700003D5606840F4E06060602878000703D526
:10078000606840F4605060606068A96820F0F00024
:10079000084360602878C00728D06868012810D016
:1007A0002168022810D0890700292EDA616821F01B
:1007B000030101436160FFF723FF804641F288395E
:1007C0000DE021688903EFE78901EDE7FFF718FFE6
:1007D000A0EB0801494502D90320BDE8F087606815
:1007E000696800F00C00B0EB810FEFD1306800F0C9
:1007F0000700B8420BD9306820F00700384330605A
:10080000306800F00700B84201D00120E5E7287801
:10081000400705D56068E96820F4E060084360603F
:100820002878000706D56068296920F4605040EAFE
:10083000C100606000F038F86168084AC1F3031134
:10084000515CC8400649086006480068FFF7F8FE9A
:100850000020C2E70020024000100240E42300080C
:10086000200000201800002004480549006849685D
:10087000044AC1F30221515CC840704720000020A7
:1008800000100240F4230008044805490068496844
:10089000044AC1F3C221515CC840704720000020C7
:1008A00000100240F423000812A185B00FC98DE8A2
:1008B0000F0014A0144A006804905168134801F016
:1008C0000C03042B10D0082B0ED1C1F38343C903B2
:1008D0001DF803000AD5516804AAC1F34041515CD8
:1008E0000A4A5043B0FBF1F005B07047084948434D
:1008F000FAE7000002030405060708090A0B0C0DBD
:100900000E0F1010010200000010024000127A00C9
:1009100000093D002DE9F84F040070D02078C04D4B
:10092000C00749D06868C0F38100012807D0686813
:10093000C0F38100022809D16868C00306D5286881
:10094000800339D560680028E7D035E06068B0F5ED
:10095000803F0BD010B1B0F5A02F11D0286820F443
:1009600080302860286820F4802002E0286840F465
:1009700080302860606890B1FFF742FE06460AE0CA
:10098000286840F480202860F0E700BFFFF738FEB9
:10099000801B642873D828688003F7D50CE0FFF724
:1009A0002FFE064605E000BFFFF72AFE801B6428E5
:1009B000F0D828688003F7D420789A4E80074FF04B
:1009C00001094FF0000839D5686810F00C0F07D006
:1009D0006868C0F38100022809D16868C00306D4A2
:1009E0002868800714D52069012808D110E0206903
:1009F000B0B1C6F80090FFF703FE074605E00AE134
:100A0000FFF7FEFDC01B0228C4D828688007F7D571
:100A10002868616920F0F80040EAC10028600DE014
:100A2000C6F80080FFF7ECFD074604E0FFF7E8FD9D
:100A3000C01B022823D828688007F7D42078000735
:100A40002CD57948A169D9B1C0F80090FFF7D8FD3D
:100A5000074604E0FFF7D4FDC01B02280FD8686AE0
:100A60008007F7D571484FF4FA510068B0FBF1F0F8
:100A7000009000BF0098411E0091FAD20EE080E085
:100A8000C0F80080FFF7BCFD074604E0FFF7B8FDA3
:100A9000C01B022875D8686A8007F7D42078400701
:100AA00060D5E8690027C00008D4E86940F08050AC
:100AB000E861E869012700F0805000905C48016817
:100AC000C90513D40168834641F480710160FFF7C2
:100AD00097FD824606E000BFFFF792FDA0EB0A00FB
:100AE00064284ED8DBF80000C005F5D5E068012881
:100AF0000AD008B1052813D0286A20F00100286226
:100B0000286A20F0040002E0286A40F00100286210
:100B1000E06841F2883B98B1FFF772FD82460BE036
:100B2000286A40F004002862EEE700BFFFF768FD86
:100B3000A0EB0A0159455AD8286A8007F6D50CE07F
:100B4000FFF75EFD824605E0FFF75AFDA0EB0A01C4
:100B500059454CD8286A8007F6D41FB1E86920F0BF
:100B60008050E861E06988B36968C1F381010229B6
:100B700044D00228C6F8608004D0FFF741FD044647
:100B800038E034E0FFF73CFD074604E0FFF738FDAE
:100B9000C01B02282BD828688001F7D4206AB0F542
:100BA000803F05D16868A16820F400300843686080
:100BB000D4E908010843696821F4741108436860A6
:100BC000C6F86090FFF71CFD044606E025E000BF74
:100BD000FFF716FD001B022809D828688001F7D509
:100BE0001BE000BFFFF70CFD001B022802D9032009
:100BF000BDE8F88F28688001F4D40EE00128F7D012
:100C00006868226A00F48031914204D1616A00F47C
:100C10007010884201D00120EAE70020E8E70000D8
:100C200000100240000042428004424220000020A6
:100C30000070004010B5401EB0F1807F01D301204C
:100C400010BD4FF0E02460610F21601701F00BF838
:100C50000020A06107202061002010BD10B590F891
:100C60003C20012A22D0012280F83C20CA688C68EE
:100C700022F4407222434C6822F4806222430C68C2
:100C800022F4006222430C6922F4805222434C6910
:100C900022F400522243C969002322F480420A430D
:100CA00001684A6480F83C30002010BD022010BD6D
:100CB00070B590F83C20012A26D0012480F83C40F1
:100CC000022280F83D2003685A689D6822F0700671
:100CD0000A6832435A600D4B02689A4208D0B2F15A
:100CE000804F05D00A4B9A4202D00A4B9A4204D157
:100CF000496825F080031943916080F83D40002148
:100D000080F83C10084670BD022070BD002C0140E8
:100D1000000400400008004010B5040003D094F81F
:100D20003D0010B107E0012010BD002084F83C0018
:100D3000204600F01FF8022084F83D00211D2068A5
:100D400000F04AFD012084F8460084F83E0084F853
:100D50003F0084F8400084F8410084F8420084F8A1
:100D6000430084F8440084F8450084F83D000020E6
:100D700010BD000008B5124A01681248914207D11F
:100D8000816941F400618161806900F4006014E0D0
:100D9000B1F1804F0AD00C4A91420FD1C16941F0A4
:100DA0000201C161C06900F0020006E0C16941F0C2
:100DB0000101C161C06900F00100009008BD0000A0
:100DC000002C0140001002400004004090F83D104B
:100DD000012901D001207047022180F83D100068F0
:100DE0000B49884208D0B0F1804F05D009498842AC
:100DF00002D00949884204D1816801F0070106291F
:100E000003D0016841F0010101600020704700003B
:100E1000002C0140000400400008004001680A6AFC
:100E200041F211131A4207D10A6A9B101A4203D1E8
:100E30000A6822F001020A60012180F83D100020BA
:100E4000704770B5044690F83C00012817D0012582
:100E500084F83C50022084F83D002068826822F02B
:100E6000770222F47F4282600868502830D00DDC7F
:100E700020284DD005DC98B310283BD148E0022053
:100E800070BD302844D0402834D139E0602828D0C3
:100E9000702806D0B0F5805F2CD0B0F5005F29D166
:100EA0000AE0CB68D1E90121206800F0D8FC206875
:100EB000816841F0770109E0CB68D1E90121206820
:100EC00000F0CDFC2068816841F48041816011E030
:100ED000CA684968206800F077FD5021206807E063
:100EE00016E0CA684968206800F07FFD602120682C
:100EF00000F0BFFC84F83D50002084F83C0070BD39
:100F0000CA684968206800F05FFD40212068EFE76B
:100F1000226801461046EBE710B586B0002100912B
:100F2000019102910391134C036813490222134863
:100F3000A3420AD18B6943F004038B61896901F0F4
:100F4000040104914FF440710BE0B3F1804F0ED1D6
:100F50008B6943F004038B61896901F004010491FA
:100F60000321CDE9001269460392FFF74FFA06B05C
:100F700010BD0000002C014000100240000801409C
:100F800070B5044690F83C000D4601280AD00120B7
:100F900084F83C0042B1042A18D0082A2AD00C2A2E
:100FA0004DD139E0022070BD206800F06BFC206854
:100FB000816941F0080181612068816921F00401A3
:100FC0008161206881692A69114311E0206800F07D
:100FD00081FC2068816941F4006181612068816938
:100FE00021F480618161206881692A6941EA0221D6
:100FF000816124E0206800F099FC2068C16941F01B
:101000000801C1612068C16921F00401C161206843
:10101000C1692A69114311E0206800F0B3FC20681F
:10102000C16941F40061C1612068C16921F4806136
:10103000C1612068C1692A6941EA0221C1610020B9
:1010400084F83C0070BD10B5040003D094F83D0056
:1010500010B107E0012010BD002084F83C002046BC
:1010600000F01EF8022084F83D00211D206800F0E9
:10107000B3FB012084F8460084F83E0084F83F006A
:1010800084F8400084F8410084F8420084F843006A
:1010900084F8440084F8450084F83D00002010BD29
:1010A0007047000010B50446022249B104290ED051
:1010B000082913D094F84100012816D0012010BD52
:1010C00094F83E000128F9D184F83E200FE094F80E
:1010D0003F000128F2D184F83F2008E094F8400056
:1010E0000128EBD184F8402001E084F8412001225E
:1010F000206800F0A7FB0F492068884203D1426CAA
:1011000042F4004242642068884208D0B0F1804F27
:1011100005D00949884202D00849884204D1816833
:1011200001F00701062903D0016841F001010160C7
:10113000002010BD002C01400004004000080040C9
:1011400070477047F8B5026804461068D168536963
:1011500010F00F0F4FF0000553D003F0010601F41B
:10116000907737435FD0C20705D0CA0503D5226CFC
:1011700042F001022264420705D5DA0703D0226C4F
:1011800042F002022264820705D5DA0703D0226CFE
:1011900042F004022264020707D501F02002324324
:1011A00003D0226C42F008022264226C002A34D060
:1011B000800604D5880602D5204600F048FC206849
:1011C0004069216CC0F38010090700D430B3204679
:1011D00000F025FC2068416949061BD5416921F0D2
:1011E00040014161A06BA8B158494163A06BFFF772
:1011F00077F8002811D0A06B416B01B0BDE8F0403A
:10120000084783060FD58B060DD52046BDE8F8406C
:1012100000F01DBC2046FFF794FFF8BD2046FFF705
:1012200090FF2564F8BD266B2023012E52D1C606FF
:1012300050D5CE064ED510685068009050694006D3
:101240002AD5A16B086840680004000CEAD0A68D7E
:101250008642E7D9E0858869202818D0D06820F434
:101260008070D0602068416921F0010141612068EF
:10127000416921F04001416184F83E3025632068D6
:10128000C16821F01001C160A06BFFF705F8A08DC7
:10129000E18D401A81B219E0A08DE18D401A81B232
:1012A000E08D0028BED00029BCD0D06820F490701A
:1012B000D0602068426922F00102426184F83E3029
:1012C00025632068C26822F01002C2602046FFF742
:1012D00037FFF8BD05062BD50D0629D594F83D003E
:1012E0002128F6D1A068B0F5805F01D12069B0B1A6
:1012F000206A411C2162216800784860E08C401E11
:101300000004000CE084E4D12068C16821F0800171
:10131000C1602068C16841F04001C160F8BD206A29
:101320000088C0F308005060206A801C2062E5E756
:101330004006F3D54806F1D5D168204621F040019A
:10134000D16084F83D3000F0AFF8F8BD0F1A000806
:1013500070B5040004D094F83D00002510B106E0FB
:10136000012070BD84F83C50204600F023F8242072
:1013700084F83D002068C16821F40051C160204616
:1013800000F0C0FB2068016921F4904101612068F0
:10139000416921F02A0141612068C16841F400518E
:1013A000C1602564202084F83D0084F83E000020C0
:1013B00070BD000030B585B0002400940194029403
:1013C000039400681B49884232D11B48816941F46B
:1013D00080418161816901F480410491816941F01A
:1013E000080181618069154D00F0080004904020DB
:1013F0000090022001900320039069462846FFF7E1
:1014000005F88020CDE90004694628460294FEF7DD
:10141000FDFF0B48416841F0E06141F0040141608B
:10142000002201212520FFF757F92520FFF746F973
:1014300005B030BD0038014000100240000C0140F2
:101440000000014090F83E30202B0ED159B152B12E
:1014500090F83C30012B08D0012380F83C30002369
:10146000036300F0ABBB012070470220704700000F
:1014700010B50B490068096888420FD1094C01205A
:1014800002466070E11C0648FFF7DCFFE078472861
:1014900003D0482801D0492800D1207010BD000099
:1014A00004010020000000207047FEE72DE9F04312
:1014B00085B000242E48009401940294039481691D
:1014C00041F020018161816901F02001049181696D
:1014D00041F004018161816901F004010491816995
:1014E00041F0080181618069DFF8888000F0080020
:1014F0000490002208214046FFF77DF8DFF878903D
:101500004FF44047002239464846FFF774F804205C
:1015100000901A48CDE9010469464046FEF776FF7F
:10152000082001250226CDE90005CDE902466946DD
:101530004046FEF76BFF102000901148CDE90105F1
:1015400069464046FEF762FF00970396CDE90154D5
:1015500069464846FEF75AFF002211460A20FFF767
:10156000BBF80A20FFF7AAF805B0BDE8F083000039
:101570000010024000080140000C01400000111062
:101580000000311010B596B000240F9410941194FF
:10159000129413941C2168461494FEF715FE202122
:1015A00007A8FEF711FE2C482A4901604721C0E92F
:1015B000011440F2E731C0E9031444618461FFF78C
:1015C000ABFB08B172B6FEE74FF480500F900FA945
:1015D0002148FFF736FC08B172B6FEE71E48FFF758
:1015E00032FD08B172B6FEE7139413A91A48149499
:1015F000FFF75EFB08B172B6FEE76020CDE900049C
:1016000002940394049405940022694612480694B7
:10161000FFF7B6FC08B172B6FEE7042269460E4831
:10162000FFF7AEFC08B172B6FEE707940894099480
:101630004FF400500A94CDE90B4007A906480E94D8
:10164000FFF70CFB08B172B6FEE70348FFF764FC36
:1016500016B010BD002C01402C00002010B58EB03B
:1016600000240794089409940A940B941C2168465A
:101670000C94FEF7A9FD22484FF0804101604721FC
:10168000C0E9011444F61F61C0E903148461FFF747
:1016900043FB08B172B6FEE74FF48050079007A9EC
:1016A0001748FFF7CEFB08B172B6FEE71448FFF704
:1016B000CAFC08B172B6FEE70B940BA910480C9453
:1016C000FFF7F6FA08B172B6FEE76020CDE9000434
:1016D0000294002269460A480494FFF751FC08B1BD
:1016E00072B6FEE7042269460548FFF749FC08B1D7
:1016F00072B6FEE70248FFF70FFC0EB010BD000007
:101700007400002010B586B000241748009401949E
:101710000294039404941349059401604721C0E99D
:1017200001144FF6FF71C0E903148461FFF7F4FA66
:1017300008B172B6FEE74FF48050009069460A483F
:10174000FFF77FFB08B172B6FEE7049404A90648D0
:101750000594FFF7ADFA002801D072B6FEE706B097
:1017600010BD000000040040BC000020FEE7FEE7C2
:1017700070477047FEF74ABF30B58FB028216846E2
:10178000FEF722FD14210AA8FEF71EFD0121080420
:10179000CDE900100024029402250491CDE9075000
:1017A0004FF4E01009906846FFF7B4F808B172B63C
:1017B000FEE70F20CDE90A054FF48060CDE90C402B
:1017C00002210AA80E94FEF7B9FF002801D072B6D4
:1017D000FEE70FB030BD7047F0B50268164B174CEE
:1017E000174D4FF08047984205D0B84203D0A04231
:1017F00001D0A84203D122F070064A6832439842D1
:1018000005D0B84203D0A04201D0A84203D122F4AF
:101810004074CA6822434C6922F08002224302606D
:101820008A68C2620A688262984201D109690163CA
:1018300001214161F0BD0000002C01400004004086
:101840000008004010B501F01F030121046A99400F
:101850008C430462016A9A401143016210BD10B5C5
:10186000846842EA032224F47F440A4322438260CC
:1018700010BD826822F070020A4342F007018160C5
:101880007047000030B5026A22F001020262026A6B
:101890004368846924F073050C682C4322F0020528
:1018A0008A682A430A4DA8420BD122F00805CA686B
:1018B00023F440732A434D6922F004021D438B69CF
:1018C0002B434360846149684163026230BD00007C
:1018D000002C014030B5026A22F010020262026A56
:1018E000436884690D6824F4E64444EA05248D685D
:1018F00022F0200242EA05120B4DA8420ED1CD681B
:1019000022F0800242EA05124D6923F4406343EA63
:1019100085038D6922F0400243EA850343608461B8
:1019200049688163026230BD002C014030B5026A13
:1019300022F480720262036A4268C46923F400736D
:1019400024F073050C682C438D6843EA05230C4D85
:10195000A8420ED1CD6823F4006343EA05234D6904
:1019600022F4405242EA05128D6923F4806342EA70
:1019700005124260C4614968C163036230BD000062
:10198000002C014030B5026A22F480520262046ADF
:101990004268C3690D6823F4E64343EA05238D6872
:1019A00024F4005444EA0534064DA84204D14D699C
:1019B00022F4804242EA85124260C36149680164B0
:1019C000046230BD002C014010B5036A046A24F0A3
:1019D00001040462846924F0F00444EA021423F050
:1019E0000A020A438461026210BD10B5036A23F043
:1019F000100303628369046A23F4704343EA0232EA
:101A000024F0A00343EA01118261016210BD10B508
:101A1000406A0021C185C184FFF793FB10BD0168B6
:101A2000CA6822F49072CA6001684A6922F0010211
:101A30004A61016B012904D10168CA6822F01002D1
:101A4000CA60202180F83E1000210163704708B56C
:101A500090F83E10222901D0022008BD82684FF480
:101A600080539A4201D1016921B1816A9A421BD007
:101A70004AB10AE00268816A5268C2F308020A8029
:101A8000816A891C08E0026972B10268526802F03A
:101A90007F020A70816A491C8162C18D491E090456
:101AA000090CC18503D019E002685268F1E70168AA
:101AB000CA6822F02002CA600168CA6822F48072F3
:101AC000CA6001684A6922F001024A61202180F857
:101AD0003E10016B012903D0FFF7CAFC002008BDAE
:101AE000002101630168CA6822F01002CA6001681F
:101AF0000A68D20602D50A6849680091818DFFF70D
:101B00001FFBEBE770B5044600680169E26821F449
:101B10004051114301612169A0680843616908438C
:101B20002168CA6841F20C639A430243CA60206884
:101B30004169A26921F44071114341611E49206845
:101B4000884202D1FEF7A0FE01E0FEF78DFE00EB19
:101B5000C00101EB0012606864218000B2FBF0F369
:101B6000B3FBF1F36FF018067343B2FBF0F5B2FB71
:101B7000F0F605EB8305322303EB0515B5FBF1F514
:101B8000B6FBF1F605F0F00505EB0615B2FBF0F635
:101B9000B2FBF0F0B0FBF1F06FF01802504306EB2F
:101BA000800003EB0010B0FBF1F0216800F00F00A3
:101BB0002844886070BD0000003801408162828541
:101BC000C28500210164222280F83E2080F83C106A
:101BD0000168CA6842F48072CA6001684A6942F0CA
:101BE00001024A610068C16841F02001C160002023
:101BF000704700000148FFF7A5BA0000040100206B
:101C000070B5134C207810B1032810D01DE0114D91
:101C1000012208212846FEF7EEFC0120FEF7ACFB6E
:101C2000002208212846FEF7E6FC01200CE00A48C5
:101C30000068406A00F009FA084A094B00F018FAF7
:101C400000F0D2F9606000202070606870BD000074
:101C50002400002000080140BC0000209CC420B0EB
:101C60007268913FFEE70907090E002804DB00F1C6
:101C7000E02080F80014704700F00F0000F1E02031
:101C800080F8141D7047000010B50C46052827D2B7
:101C9000DFE800F0030E061119000022114614E0DF
:101CA000224601210F4800F017F92246012111E0D8
:101CB0002246022101E0002211460A4800F00CF9F8
:101CC0002246022106E022460221064800F004F9DD
:101CD000002211460348BDE81040143000F0FCB863
:101CE00010BD00004801002038B5044600200C4D0E
:101CF000009023464FF4804229460A4800F013F929
:101D0000042042030090074823462946143000F07F
:101D10000AF9BDE8384000210846FFF7B5BF0000CA
:101D2000000C0140480100201CB5FEF777FCFFF7CE
:101D300023FDFFF7BBFBFFF725FC60485E4900254C
:101D400001604FF41651C0E901150C21C560C0E9CE
:101D500004518561C561FFF7FBFA08B172B6FEE771
:101D6000FFF77CFCFFF7CEFC5448D838FFF7BCFFE8
:101D7000012253495148FFF765FB50490022903931
:101D8000684600F0F1F84E4C4FF4FA77E41E03E099
:101D900000210846FFF778FF20784728F8D02CE08C
:101DA000607850B3E0784C281CD004DC422816D070
:101DB000462804D10EE0522817D0532807D0A0F1AE
:101DC0003001092914D801EB8100400013E0002103
:101DD000084601E0A1780120FFF756FF0CE0A1784A
:101DE0000220F9E7A1780320F6E7A1780420F3E7C1
:101DF000712801D16420A070657020784928CFD067
:101E000055E000BFFFF7FCFEA060616800F0B9FA82
:101E100004D2A1780120FFF737FF48E000210846EF
:101E2000FFF732FF0A20FEF7A7FA2D21684600F0DF
:101E3000B3F84FF47A763046FEF79EFAFFF7E0FEED
:101E400020618721684600F0A7F83046FEF794FA33
:101E5000FFF7D6FEE0605A21684600F09DF8D4E90D
:101E6000031000F08EFA07D26168206900F089FA49
:101E700002D2642103200EE0D4E9031000F002FA3C
:101E800007D26168E06800F07CFA02D26421042085
:101E900001E04B210220FFF7F7FE3846FEF76CFA0F
:101EA00000210846FFF7F0FE3220FEF765FA2078A1
:101EB00048287FF46CAFA5E70038014004010020FA
:101EC0000300002010B5401A029CE41A6043511A26
:101ED000B0FBF1F0184410BD70B51546044689B149
:101EE000012916D002291DD1A18801222068FEF700
:101EF00082FBC5F16400C2B2D4E90201BDE87040C2
:101F000000F01CB8A18800222068FEF774FB0022B4
:101F1000F2E7A18800222068FEF76DFBD4E90201F8
:101F20002A46EBE770BD30B4029C01608280C0E9B4
:101F30000234214630BC1846FFF7B4B80068C36AC3
:101F400053436422B3FBF2F292B239B1042907D0B1
:101F5000082907D00C2900D10264704742637047FA
:101F600082637047C263704710B501600446828087
:101F700000200B46A071096847208862196844F662
:101F80001F60C86211461846FFF78CF82046BDE86E
:101F900010405A21AFF3008038B504460D464FF487
:101FA000166000904FF40873B42200212846FFF712
:101FB00089FFA571A18880B249B104290BD00829F5
:101FC0000DD00C2902D121680968086438BD216848
:101FD0000968486338BD21680968886338BD21688D
:101FE0000968C86338BD000021F00042A2F16052C8
:101FF000B2F5801F01F0004328BFD2F17F6C0BD9EE
:102000005FEA001C43EAC20242EB507018BF7047FF
:1020100028BF20F001007047B2F5801FBCBF1846F2
:1020200070474FEA410C1CF5001F02D2084600F031
:10203000A3B970B500F0C6F800000089FFF7F6BF3D
:102040004FF00040A0F580007047B0FA80F310FA1E
:1020500003F10AD0C3F11D0303F580634FEA415039
:102060004FEA035202EBD12170474FF00000704756
:10207000DFF848C170B51CEA111E1EBF1CEA13151B
:102080009EEA0C0F95EA0C0F00F06F8081EA0304C2
:1020900023EA4C134EEAD47E21EA4C1141F480111C
:1020A00043F48013AE44A1FB024CA0FB0365AEF1E8
:1020B0007F7E361955EB0C05A1FB034C4CF1000358
:1020C000A0FB021C16EB0C06654153F1000309420C
:1020D00018BF46F0010613F4007F0BD14FEA03311D
:1020E0004FEA0530340341EA155140EA16506FF0CB
:1020F00003020AE04FEAC3214FEAC520F40241EA95
:10210000555140EA56506FF0020202EB2E4201EBAD
:10211000025585EACE710AD05FEA440C18BF24F05C
:10212000004450F1000041F1000120EAD47040F277
:10213000FE7C624500D270BDA84214BF4FF08044BF
:102140004FF04044002E08BF0024BEF1806FA8BFAE
:10215000A1F1C041BDE8704080F282804FF00000E4
:1021600001F1C04101F0004170479EEA0C0F0CEAFA
:10217000131518BF95EA0C0F06D04FF0000081EA46
:10218000030E0EF0004170BD00F01CF88900013E06
:1021900000F007B800F009B84FEA430C5FEA5C5C56
:1021A00008D081EA030100F05BB84FEA410C5FEA16
:1021B0005C5CF6D14FF00000014970470000FF075A
:1021C0000000F87F0EF1020E2EF0030E5EF8046B95
:1021D000364205D4012A43EB030515F5001F12D83A
:1021E000012841EB010C1CF5001F0CD80ED14FEA61
:1021F000D17C15F5001F0CEB4C0C0CF1020C08BF48
:102200004CEBD37C04E04FF0080C01E04FEAD37CA8
:102210000CEB4C0526FA05F606F00706B6F1040CA1
:1022200006D20EEB860CBDE870404CF0010C604706
:10223000DFE80CF0090B02024FF000414FF0000004
:10224000A1F5002170BD19461046012851EB01048B
:1022500018BFD4F5001484BF002001F0004170BD08
:102260000808A0F500114FEA31017047401058BF2F
:10227000C0F14040491058BFC1F140418142EFF3E5
:102280000080704750EA010C00F113801CF5000F2C
:1022900058BFBCF5000F01D48842704707D710F52E
:1022A000000F58BF11F5000F15D4884270478942BE
:1022B00070471CF5000F04D5BCF5000FF7D581421F
:1022C00070474FF0807C1CEB400F38BF1CEB410F78
:1022D00001D28142704710B500F008F892244900FD
:1022E0004FF000504FF08051FFF7C0BF0EF1020ECB
:1022F0002EF0030E5EF8044B244204D44FEA410250
:10230000B2F17F4F11D84FEA4003B3F17F4F0CD8A1
:102310000ED14FEAD07CB2F17F4F0CEB4C0C0CF19C
:10232000020C08BF4CEBD17C04E04FF0080C01E03C
:102330004FEAD17C0CEB4C0324FA03F404F00704BD
:10234000B4F1040C06D20EEB840CBDE810404CF046
:10235000010C6047DFE80CF0070802024FF0004074
:10236000A0F5800010BD0846420018BFD2F180726F
:1023700088BF00F0004010BDFF2141EAD050C005E9
:10238000704751EA000C00F113801CF5000F58BF94
:10239000BCF5000F01D48142704707D711F5000F3B
:1023A00058BF10F5000F15D481427047894270471D
:1023B0001CF5000F04D5BCF5000FF7D58842704717
:1023C0004FF0807C1CEB410F38BF1CEB400F01D25B
:1023D0008842704780EA010081EA000180EA01003A
:1023E000FFF779BF000000000000000001020304B5
:1023F0000607080900000000010203041C2400086D
:10240000000000202C0000002801000848240008DB
:102410002C000020A40700004401000847004B00E6
:102420000000C841000000000000000000000000A3
:102430000100000010000000000000000024F40073
:08244000000000000000000094
:04000005080000ED02
:00000001FF
